:1000000009C0AAC041C097C03FC03EC03DC03CC06F
:100010003BC03AC011241FBECFE9CDBF80E888B9EC
:100020008DE384BB04B600FC0CC004B601FE0BC01B
:10003000809173008F5F8093730080917300843090
:1000400010F01092730014BE8DE188BB87BB81E075
:1000500083BF82E089BF85BF80E48BBF789410E0C6
:10006000A0E6B0E0E4E8F1E002C005900D92AA3607
:10007000B107D9F710E0AAE6B0E001C01D92A3379E
:10008000B107E1F72FD07CC0BBCF80936A0090E628
:1000900002C095BF889580916A008823D1F70895A2
:1000A00080916800909169009C01217030703095BA
:1000B00021953F4F2170307D9695879528273927C8
:1000C0003093690020936800C90108958BE188BBD3
:1000D000F89483E08CBF80BF82E080BF80E785BF5B
:1000E000889508951F93CF93DF931092720010921A
:1000F000710018E0C4E2D4EF1F5F183008F010E080
:10010000E12FF0E0E05AFF4F808188BBCE010197DC
:10011000F1F701C0DBDF8091710090917200892BB3
:10012000C9F38091710090917200019790937200D1
:1001300080937100E1CF1F920F920FB60F9211249E
:100140008F9380916A00815080936A008F910F9005
:100150000FBE0F901F9018951F920F920FB60F921F
:1001600011248F939F9389E190E090937200809384
:1001700071009F918F910F900FBE0F901F90189557
:04018000F894FFCF21
:0A01840002030A120B131A1B1EDA05
:00000001FF
