:1000000009C0ABC03EC098C03CC03BC03AC039C07C
:1000100038C037C011241FBECFE9CDBF80E888B9F2
:100020008DE384BB04B600FC0CC004B601FE0BC01B
:10003000809173008F5F8093730080917300843090
:1000400010F01092730014BE8DE188BB87BB81E075
:1000500083BF82E089BF789410E0A0E6B0E0E6E8D4
:10006000F1E002C005900D92AA36B107D9F710E071
:10007000AAE6B0E001C01D92A337B107E1F733D083
:1000800080C0BECF80936A0090E602C095BF88957D
:1000900080916A008823D1F708958091670090913C
:1000A00068009C0121703070309521953F4F217080
:1000B000307D9695879528273927309368002093BF
:1000C0006700C90108958BE188BBF89483E08CBF79
:1000D00080BF92E090BF80E785BF95BF80E48BBF73
:1000E0007894889508951F93CF93DF9310927200B0
:1000F0001092710017E0C8EAD1E61F5F173008F0D0
:1001000010E0E12FF0E0E05AFF4F808188BBCE0184
:100110000197F1F701C0D7DF8091710090917200D3
:10012000892BC9F38091710090917200019790938F
:10013000720080937100E1CF1F920F920FB60F9261
:1001400011248F9380916A00815080936A008F916F
:100150000F900FBE0F901F9018951F920F920FB621
:100160000F9211248F939F9389E190E090937200F6
:10017000809371009F918F910F900FBE0F901F90F1
:060180001895F894FFCF72
:0A01860002030A120B131A1EDA001E
:00000001FF
