:1000000009C096C041C083C03FC03EC03DC03CC097
:100010003BC03AC011241FBECFE9CDBF80E888B9EC
:100020008DE384BB04B600FC0CC004B601FE0BC01B
:10003000809173008F5F8093730080917300843090
:1000400010F01092730014BE8DE188BB87BB81E075
:1000500083BF82E089BF85BF80E48BBF789410E0C6
:10006000A0E6B0E0ECE5F1E002C005900D92AA3602
:10007000B107D9F710E0AAE6B0E001C01D92A3379E
:10008000B107E1F723D068C0BBCF80936A0090E648
:1000900002C095BF889580916A008823D1F70895A2
:1000A00080916800909169009C01217030703095BA
:1000B00021953F4F2170307D9695879528273927C8
:1000C0003093690020936800C901089528E049E150
:1000D00050E02F5F283008F020E0E22FF0E0E05AF7
:1000E000FF4F808188BB80E197E2FA013197F1F7F9
:1000F0000197D9F7EECF8FE188BBF89483E08CBFEE
:1001000080BF82E080BF80E785BF889508951F92F9
:100110000F920FB60F9211248F9380916A00815035
:1001200080936A008F910F900FBE0F901F901895CB
:100130001F920F920FB60F9211248F939F9381E01D
:1001400090E090937200809371009F918F910F9037
:0C0150000FBE0F901F901895F894FFCF81
:0A015C0000010810091118191EDA3D
:00000001FF
