:1000000009C096C041C083C03FC03EC03DC03CC097
:100010003BC03AC011241FBECFE9CDBF80E888B9EC
:100020008DE384BB04B600FC0CC004B601FE0BC01B
:1000300080916F008F5F80936F0080916F0084309C
:1000400010F010926F0014BE8DE188BB87BB81E079
:1000500083BF82E089BF85BF80E48BBF789410E0C6
:10006000A0E6B0E0ECE5F1E002C005900D92A63606
:10007000B107D9F710E0A6E6B0E001C01D92AF3697
:10008000B107E1F723D068C0BBCF8093660090E64C
:1000900002C095BF8895809166008823D1F70895A6
:1000A00080916400909165009C01217030703095C2
:1000B00021953F4F2170307D9695879528273927C8
:1000C0003093650020936400C901089524E049E15C
:1000D00050E02F5F243008F020E0E22FF0E0E05AFB
:1000E000FF4F808188BB80E197E2FA013197F1F7F9
:1000F0000197D9F7EECF8FE188BBF89483E08CBFEE
:1001000080BF82E080BF80E785BF889508951F92F9
:100110000F920FB60F9211248F9380916600815039
:10012000809366008F910F900FBE0F901F901895CF
:100130001F920F920FB60F9211248F939F9381E01D
:1001400090E090936E0080936D009F918F910F903F
:0C0150000FBE0F901F901895F894FFCF81
:06015C001B1A130B1EDA52
:00000001FF
