:1000000009C098C041C085C03FC03EC03DC03CC093
:100010003BC03AC011241FBECFE9CDBF80E888B9EC
:100020008DE384BB04B600FC0CC004B601FE0BC01B
:10003000809173008F5F8093730080917300843090
:1000400010F01092730014BE8DE188BB87BB81E075
:1000500083BF82E089BF85BF80E48BBF789410E0C6
:10006000A0E6B0E0E0E6F1E002C005900D92AA360D
:10007000B107D9F710E0AAE6B0E001C01D92A3379E
:10008000B107E1F723D06AC0BBCF80936A0090E646
:1000900002C095BF889580916A008823D1F70895A2
:1000A00080916800909169009C01217030703095BA
:1000B00021953F4F2170307D9695879528273927C8
:1000C0003093690020936800C901089590E03FEFE4
:1000D00020E69F5F983008F090E0E92FF0E0E05ACA
:1000E000FF4F808188BB30936A0002C025BF88958E
:1000F00080916A00882369F3F9CF8FE188BBF89477
:1001000083E08CBF80BF82E080BF80E785BF889599
:1001100008951F920F920FB60F9211248F93809122
:100120006A00815080936A008F910F900FBE0F90EC
:100130001F9018951F920F920FB60F9211248F9354
:100140009F9381E090E090937200809371009F9163
:100150008F910F900FBE0F901F901895F894FFCFBE
:0A01600000010810091118191EDA39
:00000001FF
