:1000000009C0A5C041C092C03FC03EC03DC03CC079
:100010003BC03AC011241FBECFE9CDBF80E888B9EC
:100020008DE384BB04B600FC0CC004B601FE0BC01B
:10003000809173008F5F8093730080917300843090
:1000400010F01092730014BE8DE188BB87BB81E075
:1000500083BF82E089BF85BF80E48BBF789410E0C6
:10006000A0E6B0E0EAE7F1E002C005900D92AA3602
:10007000B107D9F710E0AAE6B0E001C01D92A3379E
:10008000B107E1F723D077C0BBCF80936A0090E639
:1000900002C095BF889580916A008823D1F70895A2
:1000A00080916800909169009C01217030703095BA
:1000B00021953F4F2170307D9695879528273927C8
:1000C0003093690020936800C9010895109272006E
:1000D0001092710028E044E254EF2F5F283008F0BE
:1000E00020E0E22FF0E0E05AFF4F808188BBCA0198
:1000F0000197F1F78091710090917200892BD1F3F3
:10010000809171009091720001979093720080939A
:100110007100E3CF8FE188BBF89483E08CBF80BF90
:1001200082E080BF80E785BF889508951F920F9277
:100130000FB60F9211248F9380916A0081508093A3
:100140006A008F910F900FBE0F901F9018951F920D
:100150000F920FB60F9211248F939F9389E190E035
:1001600090937200809371009F918F910F900FBEBA
:0A0170000F901F901895F894FFCF30
:0A017A0002030A120B131A1B1EDA0F
:00000001FF
