:1000000009C0E7C041C040C03FC03EC03DC03CC089
:100010003BC03AC011241FBECFE9CDBF80E888B9EC
:100020008DE384BB04B600FC0CC004B601FE0BC01B
:1000300080916C008F5F80936C0080916C008430A5
:1000400010F010926C0014BE8DE188BB87BB81E07C
:1000500083BF82E089BF85BF80E48BBF789410E0C6
:10006000A0E6B0E0E4ECF4E002C005900D92A43606
:10007000B107D9F710E0A4E6B0E001C01D92AC369C
:10008000B107E1F71DD01CC2BBCF82E085BF80E481
:100090008BBF789408959BE198BBF89493E09CBF44
:1000A00090BF92E090BF90E795BFF894882329F025
:1000B00082E085BF80E48BBF78948895AFDF089598
:1000C0009F92AF92BF92CF92DF92EF92FF920F93E7
:1000D0001F93CF93DF9310926B0010926A0083E01E
:1000E000982EC9E1D0E05FC0939482E0891508F4AE
:1000F0009924E92DF0E0E05AFF4F808188BB809180
:100100006C0090E068EE73E0C9D1AA2797FDA09536
:10011000BA2FBC01CD01A3D05B016C0120E030E01F
:100120004AE753E428D17B018C0120E030E040E82D
:100130005FE363D088231CF461E070E01EC0C80157
:10014000B70120E03FEF4FE757E411D1181694F4C0
:10015000C601B50120E030E040E251E40CD151D0BD
:1001600005C0CE010197F1F761507040611571052E
:10017000C1F70AC0C801B70144D0CB010197F1F71C
:1001800003C081E090E087DF80916A0090916B006E
:10019000892BB9F380916A0090916B00019790933D
:1001A0006B0080936A0080916C00833009F09CCFD3
:1001B00080E090E070DF80E090E0DF91CF911F91D0
:1001C0000F91FF90EF90DF90CF90BF90AF909F90F6
:1001D00008951F920F920FB60F9211248F939F9341
:1001E00089E190E090936B0080936A009F918F91DA
:1001F0000F900FBE0F901F9018956CD008F481E0FF
:10020000089594D088F09F5790F0B92F9927B7514F
:10021000A0F0D1F0660F771F881F991F1AF0BA95CA
:10022000C9F712C0B13081F09BD0B1E0089598C0F9
:10023000672F782F8827B85F39F0B93FCCF38695C0
:1002400077956795B395D9F73EF49095809570951D
:1002500061957F4F8F4F9F4F0895E89409C097FB9A
:100260003EF490958095709561957F4F8F4F9F4F8D
:100270009923A9F0F92F96E9BB279395F6958795D1
:1002800077956795B795F111F8CFFAF4BB0F11F494
:1002900060FF1BC06F5F7F4F8F4F9F4F16C088233B
:1002A00011F096E911C0772321F09EE8872F762F71
:1002B00005C0662371F096E8862F70E060E02AF0B2
:1002C0009A95660F771F881FDAF7880F969587959E
:1002D00097F90895990F0008550FAA0BE0E8FEEF73
:1002E00016161706E807F907C0F012161306E407FA
:1002F000F50798F0621B730B840B950B39F40A26F3
:1003000061F0232B242B252B21F408950A2609F4D0
:10031000A140A6958FEF811D811D089557FD90582E
:10032000440F551F59F05F3F71F04795880F97FBB9
:10033000991F61F09F3F79F0879508951216130673
:100340001406551FF2CF4695F1DF08C016161706A2
:100350001806991FF1CF86957105610508940895D7
:10036000E894BB2766277727CB0197F90895B2DF7A
:1003700008F48FEF08950AD080C071D028F076D0AD
:1003800018F0952309F062C067C0EBCFC7DFA8F370
:100390009923D9F35523C9F3950F50E0551FAA2788
:1003A000EE27FF27BB2700240894679520F4E20F6F
:1003B000F31FB41F0A1E220F331F441FAA1F669586
:1003C000A9F7779530F4F30FB41F0A1E121E08F434
:1003D0006395330F441FAA1F221F769599F78795BF
:1003E00020F4B40F0A1E121E631F440FAA1F221FFF
:1003F000331F8695A9F7862F712D602D11249F57E5
:1004000050408AF0E1F088234AF0EE0FFF1FBB1F37
:10041000661F771F881F91505040A9F79E3F5105D6
:1004200070F014C09ECF5F3FECF3983EDCF38695EE
:1004300077956795B795F795E7959F5FC1F7FE2B81
:10044000880F911D9695879597F9089597F99F675D
:1004500080E870E060E008959FEF80EC089500244C
:100460000A941616170618060906089500240A9419
:1004700012161306140605060895092E0394000C9F
:1004800011F4882352F0BB0F40F4BF2B11F460FF2E
:1004900004C06F5F7F4F8F4F9F4F089555270024F3
:1004A00080FF02C0060E571F660F771F611571058A
:1004B00021F096958795009799F7952F802D0895AF
:0404C000F894FFCFDE
:0404C4001A130B00FC
:00000001FF
