:1000000009C0B5C03EC03DC03CC03BC03AC039C0CD
:1000100038C037C011241FBECFE9CDBF04B600FCE5
:100020000CC004B601FE0BC0809166008F5F809308
:10003000660080916600843010F01092660014BE55
:1000400080E888B98DE384BB8DE188BB87BB82E003
:1000500085BF80E48BBF789410E0A0E6B0E0E0E9D3
:10006000F1E002C005900D92A436B107D9F710E077
:10007000A4E6B0E001C01D92A636B107E1F726D094
:1000800085C0BECF14BE80E888B98DE384BB8DE106
:1000900088BB87BB08959BE198BBF89493E09CBF15
:1000A00090BF92E090BF882329F095BF80E48BBF7A
:1000B000789402C080E785BF889514BE80E888B92F
:1000C0008DE384BB8DE188BB87BB08950F931F939D
:1000D000CF93DF9385E08093650083E08093640095
:1000E000C9E1D0E008EA11E6809164008F5F809357
:1000F0006400833010F010926400E0916400F0E03E
:10010000E05AFF4F808188BB80916600813059F0B2
:10011000813028F0823079F08330C9F414C0C801EE
:100120000197F1F714C080E197E2FE013197F1F7F2
:100130000197D9F70CC08FEF9FEFFE013197F1F7D0
:100140000197D9F704C080E001C081E0A4DF80916D
:1001500065008823D1F3809165008150809365000C
:10016000C3CF82E085BF80E48BBF789408951F924F
:100170000F920FB60F9211248F9385E08093650044
:100180008F910F900FBE0F901F901895F894FFCF8E
:040190001A130B0033
:00000001FF
