:1000000009C0FCC03EC0E9C03CC03BC03AC039C0DA
:1000100038C037C011241FBECFE9CDBF80E888B9F2
:100020008DE384BB04B600FC0CC004B601FE0BC01B
:1000300080916F008F5F80936F0080916F0084309C
:1000400010F010926F0014BE8DE188BB87BB81E079
:1000500083BF82E089BF789410E0A0E6B0E0EAECCC
:10006000F4E002C005900D92A636B107D9F710E072
:10007000A6E6B0E001C01D92AF36B107E1F733D07C
:1000800022C2BECF8093660090E602C095BF8895DD
:10009000809166008823D1F7089580916300909144
:1000A00064009C0121703070309521953F4F217084
:1000B000307D9695879528273927309364002093C3
:1000C0006300C90108958BE188BBF89483E08CBF7D
:1000D00080BF92E090BF80E785BF95BF80E48BBF73
:1000E0007894889508957F928F929F92AF92BF9255
:1000F000CF92DF92EF92FF920F931F93CF93DF93F4
:1001000010926E0010926D0080916F00813019F492
:1001100028EE33E002C024E630E0B901882777FDFD
:100120008095982FB1D04B015C0120E030E04AE788
:1001300053E436D17B018C0179D0762EC72E53E063
:10014000D52EC9E1D0E0D39482E08D1508F4DD24EA
:10015000ED2DF0E0E05AFF4F808188BBC801B70168
:1001600020E030E040E85FE35DD087FD1FC0C801BC
:10017000B70120E03FEF4FE757E40ED1181624F007
:10018000872D9C2D9C0114C0C501B40120E030E0F6
:1001900040E251E405D14AD005C0CE010197F1F704
:1001A0006150704061157105C1F707C021E030E072
:1001B000C9010197F1F701C086DF80916D00909130
:1001C0006E00892BC9F380916D0090916E000197AC
:1001D00090936E0080936D00B6CF1F920F920FB672
:1001E0000F9211248F938091660081508093660056
:1001F0008F910F900FBE0F901F9018951F920F9226
:100200000FB60F9211248F939F9389E190E0909302
:100210006E0080936D009F918F910F900FBE0F9095
:100220001F9018956CD008F481E0089594D088F060
:100230009F5790F0B92F9927B751A0F0D1F0660FD2
:10024000771F881F991F1AF0BA95C9F712C0B130ED
:1002500081F09BD0B1E0089598C0672F782F882750
:10026000B85F39F0B93FCCF3869577956795B3952C
:10027000D9F73EF490958095709561957F4F8F4F9B
:100280009F4F0895E89409C097FB3EF490958095A0
:10029000709561957F4F8F4F9F4F9923A9F0F92F4C
:1002A00096E9BB279395F695879577956795B795CA
:1002B000F111F8CFFAF4BB0F11F460FF1BC06F5FB0
:1002C0007F4F8F4F9F4F16C0882311F096E911C0C2
:1002D000772321F09EE8872F762F05C0662371F0E3
:1002E00096E8862F70E060E02AF09A95660F771FF7
:1002F000881FDAF7880F9695879597F90895990FD3
:100300000008550FAA0BE0E8FEEF16161706E807DF
:10031000F907C0F012161306E407F50798F0621B00
:10032000730B840B950B39F40A2661F0232B242BD5
:10033000252B21F408950A2609F4A140A6958FEFF4
:10034000811D811D089557FD9058440F551F59F088
:100350005F3F71F04795880F97FB991F61F09F3FB2
:1003600079F087950895121613061406551FF2CFDB
:100370004695F1DF08C0161617061806991FF1CF2B
:1003800086957105610508940895E894BB27662752
:100390007727CB0197F90895B2DF08F48FEF08951E
:1003A0000AD080C071D028F076D018F0952309F0DB
:1003B00062C067C0EBCFC7DFA8F39923D9F35523F9
:1003C000C9F3950F50E0551FAA27EE27FF27BB273B
:1003D00000240894679520F4E20FF31FB41F0A1E4F
:1003E000220F331F441FAA1F6695A9F7779530F493
:1003F000F30FB41F0A1E121E08F46395330F441F37
:10040000AA1F221F769599F7879520F4B40F0A1E2C
:10041000121E631F440FAA1F221F331F8695A9F7C0
:10042000862F712D602D11249F5750408AF0E1F0E6
:1004300088234AF0EE0FFF1FBB1F661F771F881F20
:1004400091505040A9F79E3F510570F014C09ECFC7
:100450005F3FECF3983EDCF3869577956795B7950B
:10046000F795E7959F5FC1F7FE2B880F911D969535
:10047000879597F9089597F99F6780E870E060E0A5
:1004800008959FEF80EC089500240A94161617062D
:1004900018060906089500240A9412161306140675
:1004A00005060895092E0394000C11F4882352F0D8
:1004B000BB0F40F4BF2B11F460FF04C06F5F7F4F90
:0A04C0008F4F9F4F0895F894FFCF6F
:0604CA001A130B1EDA00FC
:00000001FF
