:1000000009C0C6C042C0ADC040C03FC03EC03DC038
:100010003CC03BC011241FBECFE9CDBF80E888B9EA
:100020008FE384BB04B600FC0CC004B601FE0BC019
:10003000809167008F5F80936700809167008430B4
:1000400010F01092670014BE8FE188BB8DE187BB72
:1000500081E083BF82E089BF85BF80E48BBF789455
:1000600010E0A0E6B0E0E2EBF1E002C005900D92F6
:10007000A436B107D9F710E0A4E6B0E001C01D92A4
:10008000A736B107E1F753D092C0BACF909365007D
:100090008093640020E602C025BF889580916400AB
:1000A00090916500892BC1F708959BE198BB93E07F
:1000B0009CBF90BF22E020BF90E795BF882329F026
:1000C00025BF80E48BBF789401C0F8948895A6DFA3
:1000D00008950F931F93CF93DF93EC0189E18093F1
:1000E000660013E000E61F5F133008F010E0E12F18
:1000F000F0E0E05AFF4F808188BBD0936500C09349
:10010000640002C005BF88958091640090916500ED
:10011000892BC1F78091660081508093660002C0F0
:1001200081E0C3DF809166008823E9F6F9CF8091F2
:100130006700813051F0813028F0823051F08330F7
:1001400069F40AC084EF91E002C08EEE92E0C1DF54
:1001500005C08CED95E0FBCF80E0A7DF80E090E06C
:1001600008951F920F920FB60F9211248F939F93B1
:100170008091640090916500019790936500809351
:1001800064009F918F910F900FBE0F901F90189554
:100190001F920F920FB60F9211248F9389E18093D3
:1001A00066008F910F900FBE0F901F901895F894D6
:0201B000FFCF7F
:0401B2001A0B130011
:00000001FF
