:1000000009C03FC03EC0DEC03CC03BC03AC039C0A2
:1000100038C037C011241FBECFE9CDBF80E888B9F2
:100020008DE384BB04B600FC0CC004B601FE0BC01B
:1000300080916B008F5F80936B0080916B008430A8
:1000400010F010926B0014BE8DE188BB87BB81E07D
:1000500083BF82E089BF789410E0A0E6B0E0E2E1DF
:10006000F2E002C005900D92A236B107D9F710E078
:10007000A2E6B0E001C01D92AB36B107E1F78AD02D
:10008000C6C0BECF8093620090E602C095BF88953F
:10009000809162008823D1F708958091600090914B
:1000A00061009C0121703070309521953F4F217087
:1000B000307D9695879528273927309361002093C6
:1000C0006000C90108958FE188BBF89483E08CBF7C
:1000D00080BF82E080BF80E785BF889508950F9339
:1000E0001F93CF93DF93EC01909368008093670098
:1000F000909366008093650081E090E090936400A7
:100100008093630002E310E68091630090916400A5
:1001100001979093640080936300892B59F4BDDFAD
:10012000826088BBD0936400C0936300D093660064
:10013000C09365000093620002C015BF889580914E
:1001400062008823D1F78091690090916A00892B21
:1001500061F08091670090916800909366008093B1
:10016000650010926A00109269008091650090917C
:10017000660001979093660080936500892B21F6B5
:10018000A2DF809167009091680090936600809351
:100190006500BACF80916B00813051F0813028F03A
:1001A000823049F0833069F40AC084E690E005C0EB
:1001B00084EF91E002C088EE93E091DF089583DF41
:1001C000FECF08951F920F920FB60F9211248F93B6
:1001D000809162008150809362008F910F900FBEDA
:1001E0000F901F9018951F920F920FB60F92112427
:1001F0008F939F9381E090E090936A0080936900D1
:100200009F918F910F900FBE0F901F901895F894AB
:02021000FFCF1E
:020212001EDAF2
:00000001FF
